:020000040800F2
:10800000008001204D8D0008F58A0008FD8A0008D7
:10801000058B00080D8B0008158B00080000000080
:108020000000000000000000000000001D8B0008A0
:108030002B8B000800000000398B0008478B0008DC
:108040009D8D00089D8D00089D8D00089D8D000868
:108050009D8D00089D8D00089D8D00089D8D000858
:108060009D8D00089D8D00089D8D00089D8D000848
:108070009D8D00089D8D00089D8D00089D8D000838
:108080009D8D00089D8D00089D8D00089D8D000828
:108090009D8D00089D8D00089D8D00089D8D000818
:1080A0009D8D00089D8D00089D8D00089D8D000808
:1080B0009D8D00089D8D00089D8D00089D8D0008F8
:1080C0009D8D00089D8D00089D8D00089D8D0008E8
:1080D0009D8D00089D8D0008558B00089D8D000822
:1080E0009D8D00089D8D00089D8D00089D8D0008C8
:1080F0009D8D00089D8D00089D8D00089D8D0008B8
:108100009D8D00089D8D00089D8D00089D8D0008A7
:108110009D8D00089D8D00089D8D00089D8D000897
:108120009D8D00089D8D00089D8D00089D8D000887
:108130009D8D00089D8D00089D8D00089D8D000877
:108140009D8D00089D8D00089D8D00089D8D000867
:108150009D8D00089D8D00089D8D00089D8D000857
:108160009D8D00089D8D00089D8D00089D8D000847
:108170009D8D00089D8D00089D8D00080000000069
:088180009D8D00089D8D000893
:1081900010B5054C237833B9044B13B10448AFF341
:1081A00000800123237010BD5C000020000000004F
:1081B00068CF000808B5034B1BB103490348AFF370
:1081C000008008BD000000006000002068CF0008AB
:1081D00010F8012B11F8013B012A28BF9A42F7D071
:1081E000D01A7047034613F8012B002AFBD1181A46
:1081F000013870470000000000000000000000008F
:1082000001F0FF01102A2BDB10F0070F08D010F847
:10821000013B013A8B422DD010F0070F42B3F6D14B
:10822000F0B441EA012141EA014122F007047FF064
:1082300000070023F0E80256083C85EA010586EABB
:10824000010685FA47F5A3FA87F586FA47F6A5FAF7
:1082500087F68EB9EED1F0BC01F0FF0102F0070203
:1082600032B110F8013B013A83EA010313B1F8D1AE
:108270000020704701387047002D06BF354603388F
:10828000073815F0010F07D1013015F4807F02BFC8
:10829000013015F4C03F0130F0BC0138704700BF19
:1082A00053B94AB9002908BF00281CBF4FF0FF315D
:1082B0004FF0FF3000F088B9ADF1080C6DE904CE45
:1082C00000F006F8DDF804E0DDE9022304B07047B1
:1082D0002DE9F047089D8E4604468846002B4AD17A
:1082E0008A42174662D9B2FA82F64EB1C6F120032D
:1082F00001FA06F820FA03F3B74043EA0808B4404D
:108300004FEA174E1FFA87FCB8FBFEF1230C0EFB59
:10831000118843EA084301FB0CF29A4209D9FB1881
:1083200001F1FF3080F0EA809A4240F2E7800239A2
:108330003B449A1AA3B2B2FBFEF00EFB102243EAB2
:10834000024300FB0CFC9C4509D9FB1800F1FF32ED
:1083500080F0D6809C4540F2D3803B44023840EA0E
:108360000140A3EB0C0300211DB1F3400022C5E93D
:108370000032BDE8F0878B4205D90DB1C5E9000197
:1083800000210846F5E7B3FA83F1002946D1734589
:1083900002D3824200F20581841A6EEB03020120AF
:1083A0009046002DE5D0C5E90048E2E7002A00F03C
:1083B0009080B2FA82F6002E40F0A4808A1A030C54
:1083C0004FEA174E80B2BCB20121B2FBFEFC0EFB9D
:1083D0001C2243EA024304FB0CF29A4207D9FB1821
:1083E0000CF1FF3802D29A4200F2E080C4469B1A98
:1083F000B3FBFEF20EFB123340EA034302FB04F42C
:108400009C4207D9FB1802F1FF3002D29C4200F2D5
:10841000CA8002461B1B42EA0C40A5E7C1F12006B8
:108420008B4022FA06F71F430EFA01F420FA06F3F6
:108430002EFA06FE4FEA1749234300FA01F81FFA05
:1084400087FCBEFBF9F01C0C09FB10EE44EA0E445D
:1084500000FB0CFEA64502FA01F209D93C1900F115
:10846000FF3A80F09C80A64540F2998002383C4457
:10847000A4EB0E041FFA83FEB4FBF9F309FB1344CB
:108480004EEA044403FB0CFCA44508D93C1903F153
:10849000FF3E80F08280A4457FD9023B3C4443EA02
:1084A0000040A4EB0C04A0FB02EC64457346E146DB
:1084B00062D35FD05DB1B8EB030264EB090404FA48
:1084C00006F622FA01F31E43CC40C5E90064002100
:1084D0004FE7B1FBF2FC010C41EA0E4180B240EAE9
:1084E00001423B4638463C46B846BE462026B1FBD4
:1084F000F7F1A2EB080241EA0C4166E7014618E7F2
:1085000010462CE7C6F120022EFA02F3B740B14024
:1085100020FA02F24FEA174E0A43B3FBFEF8BCB250
:108520000EFB1833110C41EA034108FB04F9B0407B
:1085300089454FEA104380B23ED9791808F1FF3CD3
:1085400001D289451FD8A1EB0901B1FBFEF909FB56
:1085500004F80EFB191192B242EA0142424529D2B7
:10856000BA1809F1FF31C4D24245C2D2A9F10201C1
:108570003A44BEE7F0459DD2BEEB02036CEB070C1C
:108580000138E14696E7A7EB09094944A8F1020C36
:10859000B1FBFEF909FB04F8DBE773467FE75046C1
:1085A00066E70846FDE63B44023A33E7ACF1020CCD
:1085B0003B441CE749469CE7A1EB0901C446B1FBDB
:1085C000FEF909FB04F8C4E7704700BF80B58AB024
:1085D00000AF07F1140300221A605A609A60DA6053
:1085E0001A612B4BDB6C2A4A43F00403D364284BFB
:1085F000DB6C03F004033B613B69254BDB6C244AD5
:1086000043F08003D364224BDB6C03F08003FB60F8
:10861000FB681F4BDB6C1E4A43F00103D3641C4B09
:10862000DB6C03F00103BB60BB68194BDB6C184AC1
:1086300043F00203D364164BDB6C03F002037B6050
:108640007B68002220214FF0904000F071FF4FF432
:1086500000537B614FF40413BB610023FB6107F1FE
:10866000140319460B4800F0B9FD20237B61012358
:10867000BB610023FB6100233B6207F11403194631
:108680004FF0904000F0AAFD00BF2837BD4680BDE6
:10869000001002400008004880B400AFBFF34F8FC5
:1086A00000BF064BDB6803F4E0620449044B13434C
:1086B000CB60BFF34F8F00BF00BFFDE700ED00E0D0
:1086C0000400FA0580B5A0B000AF00F07BFB00F01D
:1086D00025F8FFF77BFF00F0A5FA00F08DF90122E5
:1086E0000B490C4802F07AFC3B460B4A80211846A5
:1086F00003F086FF3B461846FFF774FD03469AB227
:1087000039464FF0FF33034802F0DFFB00BFFDE7BF
:1087100078000020E800002080CF000880B596B0E7
:1087200000AF07F1140344220021184603F09EFF16
:108730003B4600221A605A609A60DA601A614FF470
:10874000007000F02BFF0346002B01D000F04EF923
:108750000A237B614FF480733B6210237B62012309
:10876000BB620223FB6302233B6401237B640A2375
:10877000BB640723FB6402233B6502237B6507F18F
:108780001403184600F060FF0346002B01D000F0F0
:108790002DF90F233B6003237B600023BB60002384
:1087A000FB6000233B613B460421184601F028FB97
:1087B0000346002B01D000F019F900BF5837BD4621
:1087C00080BD000080B582B000AF78607B681B6818
:1087D000194A93422CD1194B1B780D2B03D0174B00
:1087E0001B780A2B10D1164B1B78002B1BD0144B77
:1087F0001B781A46134B00219954124800F026F8B2
:108800000F4B00221A700EE00D4B1B783E2B0AD83E
:108810000B4B1B785A1CD1B2094A11701A46074BF0
:108820001978084B995401220449074802F0D6FBF5
:1088300000BF0837BD4680BD0044004078000020DE
:10884000BC0000207C000020E800002080B5A2B021
:1088500000AF7860594B1B78002B02D0012B21D040
:10886000A9E057497868FFF7B3FC0346002B40F0B6
:10887000A18007F10803534A8021184603F0C0FE87
:1088800007F108031846FFF7ADFC03469AB207F15B
:1088900008014FF0FF334C4802F017FB474B012211
:1088A0001A7087E049497868FFF792FC0346002B6D
:1088B00015D107F10803464A8021184603F0A0FEAF
:1088C00007F108031846FFF78DFC03469AB207F13B
:1088D00008014FF0FF333C4802F0F7FA6BE03D49E6
:1088E0007868FFF775FC0346002B2DD107F10803CC
:1088F000394A8021184603F083FE07F10803184621
:10890000FFF770FC03469AB207F108014FF0FF33FE
:108910002D4802F0DAFA00F05DF907F108032F4A5A
:108920008021184603F06CFE07F108031846FFF794
:1089300059FC03469AB207F108014FF0FF33224871
:1089400002F0C3FAFFF7A8FE25497868FFF740FC5C
:108950000346002B18D107F10803224A802118464C
:1089600003F04EFE07F108031846FFF73BFC0346F1
:108970009AB207F108014FF0FF33134802F0A5FA4D
:108980000E4B00221A7016E007F10803164A8021E8
:10899000184603F035FE07F108031846FFF722FCDE
:1089A00003469AB207F108014FF0FF33064802F080
:1089B0008CFA00E000BF8837BD4680BDBD000020B6
:1089C0009CCF0008A0CF0008E8000020B0CF00082E
:1089D000B4CF0008BCCF0008C4CF0008D4CF000833
:1089E000ECCF0008F4CF000808D0000880B400AF36
:1089F00072B600BF00BFFDE780B500AF104B114A53
:108A00001A600F4B00225A600D4B7F229A600C4B6C
:108A1000FF22DA600A4B00221A61094B00225A61D8
:108A2000074B00229A61064B0022DA61044802F0EB
:108A3000C7F80346002B01D0FFF7D8FF00BF80BD69
:108A4000C00000200028004080B5A4B000AF7860CE
:108A500007F1080388220021184603F007FE7B680F
:108A60001B68104A934218D14FF40033BB604FF497
:108A70000073C7F88C3007F10803184601F0E4FBD7
:108A80000346002B01D0FFF7B1FF074BD3F890301E
:108A9000054A43F40043C2F8903000BF9037BD460A
:108AA00080BD00BF002800400010024080B483B0A9
:108AB00000AF0F4B1B6E0E4A43F0010313660C4BC5
:108AC0001B6E03F001037B607B68094B9B6D084ABA
:108AD00043F080539365064B9B6D03F080533B60DE
:108AE0003B6800BF0C37BD465DF8047B704700BF94
:108AF0000010024080B400AF00BFFDE780B400AFBB
:108B000000BFFDE780B400AF00BFFDE780B400AF59
:108B100000BFFDE780B400AF00BFFDE780B400AF49
:108B200000BFBD465DF8047B704780B400AF00BF56
:108B3000BD465DF8047B704780B400AF00BFBD4602
:108B40005DF8047B704780B500AF00F097F900BF77
:108B500080BD000080B500AF024802F08BFA00BF74
:108B600080BD00BFE800002080B586B000AF78600F
:108B7000144A154BD31A7B617B693B61134B1B680D
:108B8000002B02D1114B124A1A60104B1A687B68F5
:108B900013443A699A4207D203F070FD03460C224F
:108BA0001A604FF0FF3309E0084B1B68FB60074B6E
:108BB0001A687B681344054A1360FB681846183727
:108BC000BD4680BD0080012000040000E4000020BC
:108BD000C002002080B582B000AF0F4B9B6D0E4AE3
:108BE00043F0805393650C4B9B6D03F080537B6087
:108BF0007B6800F0B5FC084BD3F89030064A43F48C
:108C00000043C2F89030054A0021054802F0F6F80A
:108C100000BF0837BD4680BD00100240EFBEADDE8C
:108C2000C000002080B500AF144B154A1A60134BEA
:108C30004FF4E1325A60114B00229A600F4B002230
:108C4000DA600E4B00221A610C4B0C225A610B4B5E
:108C500000229A61094B0022DA61084B00221A6255
:108C6000064B00225A62054802F0E1F80346002B49
:108C700001D0FFF7BBFE00BF80BD00BFE8000020B1
:108C80000044004080B5ACB000AF786007F19C03B1
:108C900000221A605A609A60DA601A6107F11403C0
:108CA00088220021184603F0E1FC7B681B68254AF6
:108CB000934243D102237B6100233B6507F11403F8
:108CC000184601F0C1FA0346002B01D0FFF78EFED3
:108CD0001D4B9B6D1C4A43F4003393651A4B9B6DEF
:108CE00003F400333B613B69174BDB6C164A43F0DE
:108CF0000103D364144BDB6C03F00103FB60FB68DE
:108D00000C23C7F89C300223C7F8A0300023C7F813
:108D1000A4300323C7F8A8300723C7F8AC3007F105
:108D20009C0319464FF0904000F058FA00220021B1
:108D3000262000F09EF9262000F0B7F900BFB037DA
:108D4000BD4680BD0044004000100240DFF834D032
:108D500000F026F80C480D490D4A002302E0D458D3
:108D6000C4500433C4188C42F9D30A4A0A4C002375
:108D700001E013600432A242FBD303F085FCFFF74D
:108D8000A1FCFEE700800120000000205C00002024
:108D90009CD000085C000020BC020020FEE7000020
:108DA00080B400AF064BD3F88830054A43F4700313
:108DB000C2F8883000BFBD465DF8047B704700BF35
:108DC00000ED00E080B582B000AF0023FB710C4BDA
:108DD0001B680B4A43F480731360032000F03EF9D4
:108DE000002000F00FF80346002B02D00123FB7196
:108DF00001E0FFF75BFEFB7918460837BD4680BDF2
:108E00000020024080B584B000AF78600023FB737F
:108E1000174B1B78002B23D0164B1A68144B1B786A
:108E200019464FF47A73B3FBF1F3B2FBF3F3184630
:108E300000F049F90346002B0FD17B680F2B09D8AE
:108E4000002279684FF0FF3000F013F90A4A7B687E
:108E5000136007E00123FB7304E00123FB7301E0CF
:108E60000123FB73FB7B18461037BD4680BD00BF56
:108E700008000020000000200400002080B400AFA3
:108E8000064B1B781A46064B1B681344044A1360B2
:108E900000BFBD465DF8047B704700BF080000209E
:108EA0007001002080B400AF034B1B681846BD461C
:108EB0005DF8047B704700BF7001002080B485B06E
:108EC00000AF78607B6803F00703FB600C4BDB6846
:108ED000BB60BA684FF6FF031340BB60FB681A0221
:108EE000BB68134343F0BF6343F40033BB60044AE1
:108EF000BB68D36000BF1437BD465DF8047B704784
:108F000000ED00E080B400AF044BDB681B0A03F007
:108F100007031846BD465DF8047B704700ED00E08E
:108F200080B483B000AF0346FB7197F90730002B84
:108F30000BDBFB7903F01F02074997F907305B0948
:108F4000012000FA02F241F8232000BF0C37BD4691
:108F50005DF8047B704700BF00E100E080B483B09F
:108F600000AF03463960FB7197F90730002B0ADB2D
:108F70003B68DAB20C4997F907301201D2B20B44C0
:108F800083F800230AE03B68DAB20849FB7903F072
:108F90000F03043B1201D2B20B441A7600BF0C3708
:108FA000BD465DF8047B704700E100E000ED00E0A5
:108FB00080B489B000AFF860B9607A60FB6803F0F4
:108FC0000703FB61FB69C3F10703042B28BF0423DC
:108FD000BB61FB690433062B02D9FB69033B00E04C
:108FE00000237B614FF0FF32BB6902FA03F3DA43DF
:108FF000BB681A407B699A404FF0FF317B6901FAE8
:1090000003F3D9437B680B40134318462437BD460E
:109010005DF8047B7047000080B582B000AF7860D7
:109020007B68013BB3F1807F01D301230FE00A4A43
:109030007B68013B53600F214FF0FF30FFF78EFF3D
:10904000054B00229A60044B07221A600023184641
:109050000837BD4680BD00BF10E000E080B582B09B
:1090600000AF78607868FFF729FF00BF0837BD467A
:1090700080BD80B586B000AF0346B9607A60FB73EF
:1090800000237B61FFF73EFF78617A68B9687869F1
:10909000FFF78EFF024697F90F3011461846FFF78B
:1090A0005DFF00BF1837BD4680BD80B582B000AF00
:1090B0000346FB7197F907301846FFF731FF00BFF1
:1090C0000837BD4680BD80B582B000AF7860786853
:1090D000FFF7A2FF034618460837BD4680BD80B49F
:1090E00085B000AF78600023FB737B6893F8253070
:1090F000DBB2022B08D07B680422DA637B68002293
:1091000083F82420012322E07B681B681A687B68AF
:109110001B6822F00E021A607B681B681A687B6865
:109120001B6822F001021A607B685B6C03F01C0272
:109130007B681B6C012101FA02F25A607B680122F4
:1091400083F825207B68002283F82420FB7B1846C7
:109150001437BD465DF8047B704780B584B000AF1E
:1091600078600023FB737B6893F82530DBB2022B19
:1091700005D07B680422DA630123FB7329E07B6856
:109180001B681A687B681B6822F00E021A607B68F5
:109190001B681A687B681B6822F001021A607B68F2
:1091A0005B6C03F01C027B681B6C012101FA02F26C
:1091B0005A607B68012283F825207B68002283F8AF
:1091C00024207B689B6B002B03D07B689B6B7868AB
:1091D0009847FB7B18461037BD4680BD80B487B0EA
:1091E00000AF7860396000237B617FE13B681A68DB
:1091F00001217B6901FA03F31340FB60FB68002B3C
:1092000000F071813B685B6803F00303012B05D01C
:109210003B685B6803F00303022B30D17B689B68DB
:109220003B617B695B00032202FA03F3DB433A698B
:1092300013403B613B68DA687B695B0002FA03F329
:109240003A6913433B617B683A699A607B685B6863
:109250003B6101227B6902FA03F3DB433A69134065
:109260003B613B685B681B0903F001027B6902FA02
:1092700003F33A6913433B617B683A695A603B6880
:109280005B6803F00303032B18D17B68DB6A3B6147
:1092900001227B6902FA03F3DB433A6913403B6125
:1092A0003B685B68DB0803F001027B6902FA03F3A9
:1092B0003A6913433B617B683A69DA623B685B68F1
:1092C00003F00303032B17D07B68DB683B617B69EA
:1092D0005B00032202FA03F3DB433A6913403B616C
:1092E0003B689A687B695B0002FA03F33A691343AF
:1092F0003B617B683A69DA603B685B6803F00303B3
:10930000022B23D17B69DA087B68083253F82230BC
:109310003B617B6903F007039B000F2202FA03F312
:10932000DB433A6913403B613B681A697B6903F090
:1093300007039B0002FA03F33A6913433B617B691D
:10934000DA087B680832396943F822107B681B68A9
:109350003B617B695B00032202FA03F3DB433A695A
:1093600013403B613B685B6803F003027B695B0071
:1093700002FA03F33A6913433B617B683A691A6066
:109380003B685B6803F44033002B00F0AC805F4B1C
:109390001B6E5E4A43F0010313665C4B1B6E03F0C9
:1093A0000103BB60BB685A4A7B699B08023352F8D1
:1093B00023303B617B6903F003039B000F2202FA19
:1093C00003F3DB433A6913403B617B68B3F1904F91
:1093D00025D07B684F4A93421FD07B684E4A934208
:1093E00019D07B684D4A934213D07B684C4A934214
:1093F0000DD07B684B4A934207D07B684A4A934220
:1094000001D106230CE007230AE0052308E004232A
:1094100006E0032304E0022302E0012300E000232E
:109420007A6902F00302920093403A6913433B6168
:1094300037497B699B0802333A6941F823203B4B4B
:109440009B683B61FB68DB433A6913403B613B68C7
:109450005B6803F48013002B03D03A69FB68134365
:109460003B61324A3B699360304BDB683B61FB6890
:10947000DB433A6913403B613B685B6803F40013CC
:10948000002B03D03A69FB6813433B61274A3B69D1
:10949000D360264B5B683B61FB68DB433A69134052
:1094A0003B613B685B6803F40033002B03D03A69EF
:1094B000FB6813433B611D4A3B6953601B4B1B68B0
:1094C0003B61FB68DB433A6913403B613B685B6887
:1094D00003F48033002B03D03A69FB6813433B61EC
:1094E000124A3B6913607B6901337B613B681A68F0
:1094F0007B6922FA03F3002B7FF478AE00BF00BF34
:109500001C37BD465DF8047B704700BF0010024069
:10951000000001400004004800080048000C00481A
:1095200000100048001400480018004800040140E2
:1095300080B483B000AF78600B467B8013467B70AD
:109540007B78002B03D07A887B689A6102E07A8866
:109550007B689A6200BF0C37BD465DF8047B70479C
:1095600080B400AF054B1B68044A43F4807313605A
:1095700000BFBD465DF8047B704700BF007000402F
:1095800080B400AF044B1B6803F4C0631846BD46AB
:109590005DF8047B704700BF0070004080B485B068
:1095A00000AF78607B68B3F5007F30D1234B1B6838
:1095B00003F4C063B3F5007F38D0204B1B6823F45D
:1095C000C0631E4A43F4007313601D4B1B683222B4
:1095D00002FB03F31B4AA2FB03239B0C0133FB603A
:1095E00002E0FB68013BFB60144B5B6903F48063A2
:1095F000B3F5806F02D1FB68002BF2D10F4B5B6992
:1096000003F48063B3F5806F10D103230FE00B4B9D
:109610001B6803F4C063B3F5806F07D0074B1B686A
:1096200023F4C063054A43F48063136000231846A3
:109630001437BD465DF8047B704700BF00700040E2
:109640000000002083DE1B4380B588B000AF786047
:109650007B68002B01D10123CAE3974B9B6803F081
:109660000C03BB61944BDB6803F003037B617B68F5
:109670001B6803F01003002B00F0E480BB69002B93
:1096800007D0BB690C2B40F08B807B69012B40F02D
:109690008780894B1B6803F00203002B05D07B6891
:1096A0009B69002B01D10123A2E37B681A6A824BDC
:1096B0001B6803F00803002B04D07F4B1B6803F0EA
:1096C000F00305E07C4BD3F894301B0903F0F00362
:1096D000934223D27B681B6A184600F055FD03466F
:1096E000002B01D0012383E3734B1B68724A43F0C4
:1096F00008031360704B1B6823F0F0027B681B6A41
:109700006D4913430B606C4B5B6823F47F427B68AD
:10971000DB691B02684913434B6025E0664B1B68FD
:10972000654A43F008031360634B1B6823F0F002A3
:109730007B681B6A604913430B605F4B5B6823F4D3
:109740007F427B68DB691B025B4913434B60BB694B
:10975000002B09D17B681B6A184600F015FD0346F3
:10976000002B01D0012343E300F04AFC0246524B98
:109770009B681B0903F00F035049CB5C03F01F03E8
:1097800022FA03F34E4A13604E4B1B681846FFF74C
:1097900039FB0346FB73FB7B002B52D0FB7B27E39B
:1097A0007B689B69002B32D0434B1B68424A43F0D5
:1097B00001031360FFF776FB386108E0FFF772FBE7
:1097C00002463B69D31A022B01D9032310E33A4B1B
:1097D0001B6803F00203002BF0D0374B1B68364A9E
:1097E00043F008031360344B1B6823F0F0027B68DE
:1097F0001B6A314913430B602F4B5B6823F47F4294
:109800007B68DB691B022C4913434B601AE02A4B2F
:109810001B68294A23F001031360FFF743FB3861FB
:1098200008E0FFF73FFB02463B69D31A022B01D940
:109830000323DDE2204B1B6803F00203002BF0D171
:1098400000E000BF7B681B6803F00103002B74D0AD
:10985000BB69082B05D0BB690C2B0ED17B69032B90
:109860000BD1154B1B6803F40033002B64D07B68CD
:109870005B68002B60D10123BAE27B685B68B3F5BB
:10988000803F06D10C4B1B680B4A43F480331360B6
:1098900026E07B685B68B3F5A02F15D1064B1B68EB
:1098A000054A43F480231360034B1B68024A43F4C8
:1098B0008033136014E000BF0010024010D0000895
:1098C0000000002004000020A04B1B689F4A23F4E6
:1098D000803313609D4B1B689C4A23F480231360E4
:1098E0007B685B68002B13D0FFF7DCFA386108E077
:1098F000FFF7D8FA02463B69D31A642B01D9032338
:1099000076E2924B1B6803F40033002BF0D014E096
:10991000FFF7C8FA386108E0FFF7C4FA02463B696E
:10992000D31A642B01D9032362E2884B1B6803F42A
:109930000033002BF0D100E000BF7B681B6803F010
:109940000203002B60D0BB69042B05D0BB690C2B34
:1099500019D17B69022B16D17C4B1B6803F4806301
:10996000002B05D07B68DB68002B01D101233FE28F
:10997000764B5B6823F0F8527B681B691B067349C2
:1099800013434B6040E07B68DB68002B23D06F4BB8
:109990001B686E4A43F480731360FFF783FA3861E3
:1099A00008E0FFF77FFA02463B69D31A022B01D980
:1099B00003231DE2654B1B6803F48063002BF0D08A
:1099C000624B5B6823F0F8527B681B691B065F499A
:1099D00013434B6018E05D4B1B685C4A23F48073B3
:1099E0001360FFF75FFA386108E0FFF75BFA0246A1
:1099F0003B69D31A022B01D90323F9E1534B1B68AE
:109A000003F48063002BF0D17B681B6803F008032C
:109A1000002B3CD07B685B69002B1CD04B4BD3F8F0
:109A200094304A4A43F00103C2F89430FFF73AFAFF
:109A3000386108E0FFF736FA02463B69D31A022B79
:109A400001D90323D4E1414BD3F8943003F002034E
:109A5000002BEFD01BE03D4BD3F894303B4A23F072
:109A60000103C2F89430FFF71DFA386108E0FFF7F0
:109A700019FA02463B69D31A022B01D90323B7E135
:109A8000324BD3F8943003F00203002BEFD17B6804
:109A90001B6803F00403002B00F0A6800023FB7773
:109AA0002A4B9B6D03F08053002B0DD1274B9B6DF0
:109AB000264A43F080539365244B9B6D03F08053FB
:109AC000BB60BB680123FB77214B1B6803F48073E9
:109AD000002B18D11E4B1B681D4A43F48073136082
:109AE000FFF7E0F9386108E0FFF7DCF902463B696F
:109AF000D31A022B01D903237AE1154B1B6803F417
:109B00008073002BF0D07B689B68012B08D10F4B32
:109B1000D3F890300D4A43F00103C2F8903029E0A9
:109B20007B689B68052B15D1084BD3F89030074A0A
:109B300043F00403C2F89030044BD3F89030034A4A
:109B400043F00103C2F8903014E000BF001002405F
:109B5000007000409C4BD3F890309B4A23F00103E7
:109B6000C2F89030984BD3F89030974A23F0040312
:109B7000C2F890307B689B68002B16D0FFF792F9F3
:109B800038610AE0FFF78EF902463B69D31A41F2C9
:109B90008832934201D903232AE18B4BD3F89030CA
:109BA00003F00203002BEDD015E0FFF77BF93861DD
:109BB0000AE0FFF777F902463B69D31A41F288328F
:109BC000934201D9032313E17F4BD3F8903003F084
:109BD0000203002BEDD1FB7F012B05D17A4B9B6D4E
:109BE000794A23F0805393657B689B6A002B00F0D1
:109BF000FE807B689B6A022B40F0D080724BDB6852
:109C00007B617B6903F003027B68DB6A9A4230D197
:109C10007B6903F070027B681B6B013B1B019A425E
:109C200027D17B6903F4FE427B685B6B1B029A427F
:109C30001FD17B6903F400337A68926B072A14BF43
:109C400001220022D2B2934213D17B6903F4C002F5
:109C50007B68DB6B5B08013B5B059A4209D17B6942
:109C600003F0C0627B681B6C5B08013B5B069A4299
:109C70006ED0BB690C2B69D0534B1B6803F080631B
:109C8000002B05D1504B1B6803F08053002B01D0F3
:109C90000123ADE04C4B1B684B4A23F080731360EB
:109CA000FFF700F9386108E0FFF7FCF802463B696E
:109CB000D31A022B01D903239AE0434B1B6803F00C
:109CC0000073002BF0D1404BDA68404B13407A68A8
:109CD000D16A7A68126B013A120111437A68526BA9
:109CE000120211437A68D26B5208013A52051143AD
:109CF0007A68126C5208013A520611437A68926BE4
:109D0000120952040A4330491343CB602E4B1B689F
:109D10002D4A43F0807313602B4BDB682A4A43F0D3
:109D20008073D360FFF7BEF8386108E0FFF7BAF838
:109D300002463B69D31A022B01D9032358E0224B78
:109D40001B6803F00073002BF0D050E001234FE0BC
:109D50001D4B1B6803F00073002B48D11A4B1B6886
:109D6000194A43F080731360174BDB68164A43F0BF
:109D70008073D360FFF796F8386108E0FFF792F838
:109D800002463B69D31A022B01D9032330E00E4B64
:109D90001B6803F00073002BF0D028E0BB690C2B8C
:109DA00023D0094B1B68084A23F080731360FFF728
:109DB00079F838610CE0FFF775F802463B69D31A71
:109DC000022B05D9032313E0001002408C809DF97B
:109DD000094B1B6803F00073002BECD1064BDA68CB
:109DE0000549064B1340CB6001E0012300E000234E
:109DF00018462037BD4680BD00100240FCFFEEFE35
:109E000080B584B000AF786039607B68002B01D1E9
:109E10000123E7E0754B1B6803F007033A689A4299
:109E200010D9724B1B6823F0070270493B6813433B
:109E30000B606E4B1B6803F007033A689A4201D02F
:109E40000123CFE07B681B6803F00203002B10D0D6
:109E50007B689A68664B9B6803F0F0039A4208D9C6
:109E6000634B9B6823F0F0027B689B686049134357
:109E70008B607B681B6803F00103002B4CD07B6870
:109E80005B68032B07D15A4B1B6803F00073002B50
:109E900021D10123A6E07B685B68022B07D1544BDC
:109EA0001B6803F40033002B15D101239AE07B6873
:109EB0005B68002B07D14E4B1B6803F00203002B9D
:109EC00009D101238EE04A4B1B6803F48063002B09
:109ED00001D1012386E0464B9B6823F003027B6897
:109EE0005B68434913438B60FEF7DCFFF8600AE0D0
:109EF000FEF7D8FF0246FB68D31A41F2883293423C
:109F000001D903236EE03A4B9B6803F00C027B6897
:109F10005B689B009A42EBD17B681B6803F00203ED
:109F2000002B10D07B689A68314B9B6803F0F003DC
:109F30009A4208D22E4B9B6823F0F0027B689B6804
:109F40002B4913438B60294B1B6803F007033A68C6
:109F50009A4210D2254B1B6823F0070223493B6825
:109F600013430B60214B1B6803F007033A689A42C6
:109F700001D0012336E07B681B6803F00403002B4B
:109F800008D01B4B9B6823F4E0627B68DB681849B0
:109F900013438B607B681B6803F00803002B09D018
:109FA000134B9B6823F460527B681B69DB001049EC
:109FB00013438B6000F024F802460D4B9B681B098D
:109FC00003F00F030B49CB5C03F01F0322FA03F3EA
:109FD000094A1360094B1B681846FEF713FF034636
:109FE000FB72FB7A18461037BD4680BD0020024048
:109FF0000010024010D000080000002004000020E3
:10A0000080B489B000AF0023FB610023BB613E4BED
:10A010009B6803F00C033B613B4BDB6803F00303DD
:10A02000FB603B69002B05D03B690C2B21D1FB6801
:10A03000012B1ED1344B1B6803F00803002B07D102
:10A04000314BD3F894301B0A03F00F03FB6105E09A
:10A050002D4B1B681B0903F00F03FB612B4AFB69A7
:10A0600052F82330FB613B69002B0DD1FB69BB61CA
:10A070000AE03B69042B02D1254BBB6104E03B693C
:10A08000082B01D1234BBB613B690C2B34D11E4BF8
:10A09000DB6803F00303BB60BB68022B03D0BB6823
:10A0A000032B03D005E01A4B7B6105E0194B7B6164
:10A0B00002E0FB697B6100BF134BDB681B0903F007
:10A0C000070301337B60104BDB681B0A03F07F033F
:10A0D0007A6903FB02F27B68B2FBF3F37B610A4B04
:10A0E000DB685B0E03F0030301335B003B607A69BE
:10A0F0003B68B2FBF3F3BB61BB6918462437BD462E
:10A100005DF8047B704700BF0010024028D00008B3
:10A110000024F40000127A0080B400AF034B1B68E7
:10A120001846BD465DF8047B704700BF0000002064
:10A1300080B500AFFFF7F0FF0246064B9B681B0A95
:10A1400003F007030449CB5C03F01F0322FA03F377
:10A15000184680BD0010024020D0000880B500AF36
:10A16000FFF7DAFF0246064B9B68DB0A03F00703A2
:10A170000449CB5C03F01F0322FA03F3184680BDA9
:10A180000010024020D0000880B586B000AF786093
:10A1900000233B612A4B9B6D03F08053002B03D0BF
:10A1A000FFF7EEF9786114E0254B9B6D244A43F0EC
:10A1B00080539365224B9B6D03F08053FB60FB68DB
:10A1C000FFF7DEF978611E4B9B6D1D4A23F080532B
:10A1D00093657B69B3F5007F0BD17B68802B19D920
:10A1E0007B68A02B02D902233B6113E001233B6172
:10A1F00010E07B68802B02D903233B610AE07B6877
:10A20000802B02D102233B6104E07B68702B01D1DB
:10A2100001233B610B4B1B6823F0070209493B6993
:10A2200013430B60074B1B6803F007033A699A421C
:10A2300001D0012300E0002318461837BD4680BD39
:10A24000001002400020024080B586B000AF786068
:10A250000023FB740023BB747B681B6803F400635A
:10A26000002B41D07B685B6EB3F5400F2AD0B3F56D
:10A27000400F24D8B3F5000F08D0B3F5000F1ED857
:10A28000002B0AD0B3F5800F10D018E0864BDB68A6
:10A29000854A43F48033D36015E07B6804330021A2
:10A2A000184600F0BBFA0346FB740CE07B682033D1
:10A2B0000021184600F0A6FB0346FB7403E00123CF
:10A2C000FB7400E000BFFB7C002B0BD1764BD3F876
:10A2D000883023F440027B685B6E73491343C1F8F6
:10A2E000883001E0FB7CBB747B681B6803F48053FF
:10A2F000002B41D07B689B6EB3F1407F2AD0B3F135
:10A30000407F24D8B3F1007F08D0B3F1007F1ED87E
:10A31000002B0AD0B3F1807F10D018E0624BDB68CD
:10A32000614A43F48033D36015E07B680433002135
:10A33000184600F073FA0346FB740CE07B68203388
:10A340000021184600F05EFB0346FB7403E0012386
:10A35000FB7400E000BFFB7C002B0BD1524BD3F809
:10A36000883023F040727B689B6E4F491343C1F8DD
:10A37000883001E0FB7CBB747B681B6803F400330E
:10A38000002B00F0A08000237B74474B9B6D03F0F3
:10A390008053002B01D1012300E00023002B0DD0BE
:10A3A000414B9B6D404A43F0805393653E4B9B6D00
:10A3B00003F08053BB60BB6801237B743B4B1B687D
:10A3C0003A4A43F480731360FEF76CFDF86009E0CD
:10A3D000FEF768FD0246FB68D31A022B02D903235D
:10A3E000FB7405E0314B1B6803F48073002BEFD046
:10A3F000FB7C002B5CD12C4BD3F8903003F44073E2
:10A400007B617B69002B1FD07B68D3F884307A692D
:10A410009A4219D0244BD3F8903023F440737B61D7
:10A42000214BD3F89030204A43F48033C2F8903067
:10A430001D4BD3F890301C4A23F48033C2F890307F
:10A44000194A7B69C2F890307B6903F00103002B45
:10A4500016D0FEF727FDF8600BE0FEF723FD02465D
:10A46000FB68D31A41F28832934202D90323FB746A
:10A4700006E00D4BD3F8903003F00203002BECD034
:10A48000FB7C002B0CD1084BD3F8903023F44072A6
:10A490007B68D3F8843004491343C1F8903009E055
:10A4A000FB7CBB7406E000BF00100240007000405F
:10A4B000FB7CBB747B7C012B05D19E4B9B6D9D4A25
:10A4C00023F0805393657B681B6803F00103002B26
:10A4D0000AD0984BD3F8883023F003027B689B6B3B
:10A4E00094491343C1F888307B681B6803F002036A
:10A4F000002B0AD08F4BD3F8883023F00C027B68F6
:10A50000DB6B8C491343C1F888307B681B6803F010
:10A510000403002B0AD0874BD3F8883023F0300295
:10A520007B681B6C83491343C1F888307B681B68C8
:10A5300003F00803002B0AD07E4BD3F8883023F0B9
:10A54000C0027B685B6C7B491343C1F888307B6831
:10A550001B6803F01003002B0AD0764BD3F8883029
:10A5600023F440727B689B6C72491343C1F88830B6
:10A570007B681B6803F02003002B0AD06D4BD3F8D7
:10A58000883023F440627B68DB6C6A491343C1F86E
:10A5900088307B681B6803F40073002B0AD0654B7E
:10A5A000D3F8883023F440227B68DB6D6149134384
:10A5B000C1F888307B681B6803F48063002B0AD0E5
:10A5C0005C4BD3F8883023F440127B681B6E5949EA
:10A5D0001343C1F888307B681B6803F04003002BED
:10A5E0000AD0544BD3F8883023F440527B681B6D5B
:10A5F00050491343C1F888307B681B6803F080031F
:10A60000002B0AD04B4BD3F8883023F440427B68B0
:10A610005B6D48491343C1F888307B681B6803F4BD
:10A620008073002B0AD0434BD3F8883023F4403298
:10A630007B689B6D3F491343C1F888307B681B687A
:10A6400003F40053002B28D03A4BD3F8883023F082
:10A6500040627B68DB6E37491343C1F888307B6802
:10A66000DB6EB3F1006F06D1324BDB68314A43F445
:10A670008013D36011E07B68DB6EB3F1806F0CD187
:10A680007B6804330121184600F0C8F80346FB74C8
:10A69000FB7C002B01D0FB7CBB747B681B6803F444
:10A6A0000023002B28D0234BD3F8883023F04062BE
:10A6B0007B681B6F1F491343C1F888307B681B6F91
:10A6C000B3F1006F06D11B4BDB681A4A43F48013C9
:10A6D000D36011E07B681B6FB3F1806F0CD17B6896
:10A6E00004330121184600F099F80346FB74FB7C03
:10A6F000002B01D0FB7CBB747B681B6803F48023B8
:10A70000002B2BD00B4BD3F8883023F040627B68B2
:10A710005B6F08491343C1F888307B685B6FB3F106
:10A72000006F09D1034BDB68024A43F48013D36006
:10A7300014E000BF001002407B685B6FB3F1806FD4
:10A740000CD17B6804330121184600F067F80346FA
:10A75000FB74FB7C002B01D0FB7CBB747B681B680B
:10A7600003F48043002B2FD02B4BD3F8883023F0F9
:10A7700040527B689B6F28491343C1F888307B683F
:10A780009B6FB3F1805F0DD17B68043302211846C3
:10A7900000F044F80346FB74FB7C002B14D0FB7CD8
:10A7A000BB7411E07B689B6FB3F1005F0CD17B68D9
:10A7B00020330221184600F025F90346FB74FB7C88
:10A7C000002B01D0FB7CBB747B681B6803F4004347
:10A7D000002B0AD0104BD3F8883023F080427B68DE
:10A7E000DB6F0D491343C1F888307B681B6803F4A5
:10A7F0008033002B0BD0084BD3F8883023F0004275
:10A800007B68D3F8803004491343C1F88830BB7C9F
:10A8100018461837BD4680BD0010024080B584B090
:10A8200000AF786039600023FB73754BDB6803F081
:10A830000303002B18D0724BDB6803F003027B6824
:10A840001B689A420DD17B681B68002B09D06C4BAA
:10A85000DB681B0903F007035A1C7B685B689A429C
:10A8600047D00123FB7344E07B681B68032B18D09F
:10A87000032B25D8012B02D0022B09D020E0604BFE
:10A880001B6803F00203002B1DD10123FB731AE0A8
:10A890005B4B1B6803F48063002B16D10123FB7311
:10A8A00013E0574B1B6803F40033002B0FD1544BBC
:10A8B0001B6803F48023002B09D10123FB7306E0FE
:10A8C0000123FB7304E000BF02E000BF00E000BF13
:10A8D000FB7B002B0DD14A4BDB6823F073027B68B6
:10A8E00019687B685B68013B1B010B4344491343B8
:10A8F000CB60FB7B002B7DD1414B1B68404A23F092
:10A9000080631360FEF7CEFAB86009E0FEF7CAFA7A
:10A910000246BB68D31A022B02D90323FB7305E05E
:10A92000374B1B6803F00063002BEFD1FB7B002B40
:10A9300060D13B68002B11D1314B1B6923F41F33CD
:10A9400023F440737A68926811027A68D268120917
:10A9500052040A432A4913430B6127E03B68012B49
:10A9600012D1274B1B6923F4C00323F4FE437A68FA
:10A97000926811027A6812695208013A52050A4334
:10A980001F4913430B6111E01D4B1B6923F0C0638A
:10A9900023F4FE437A68926811027A685269520879
:10A9A000013A52060A43164913430B61144B1B68C4
:10A9B000134A43F080631360FEF774FAB86009E04D
:10A9C000FEF770FA0246BB68D31A022B02D90323A2
:10A9D000FB7305E00A4B1B6803F00063002BEFD00C
:10A9E000FB7B002B06D1064B1A697B689B690449E7
:10A9F00013430B61FB7B18461037BD4680BD00BF7B
:10AA00000010024080B584B000AF78603960002348
:10AA1000FB736A4BDB6803F00303002B18D0674B12
:10AA2000DB6803F003027B681B689A420DD17B68E8
:10AA30001B68002B09D0614BDB681B0903F007037F
:10AA40005A1C7B685B689A4247D00123FB7344E041
:10AA50007B681B68032B18D0032B25D8012B02D051
:10AA6000022B09D020E0554B1B6803F00203002B9A
:10AA70001DD10123FB731AE0504B1B6803F4806364
:10AA8000002B16D10123FB7313E04C4B1B6803F41E
:10AA90000033002B0FD1494B1B6803F48023002B9C
:10AAA00009D10123FB7306E00123FB7304E000BF1F
:10AAB00002E000BF00E000BFFB7B002B0DD13F4B4D
:10AAC000DB6823F073027B6819687B685B68013B75
:10AAD0001B010B4339491343CB60FB7B002B67D130
:10AAE000364B1B68354A23F080531360FEF7DAF9C2
:10AAF000B86009E0FEF7D6F90246BB68D31A022B0C
:10AB000002D90323FB7305E02C4B1B6803F00053B1
:10AB1000002BEFD1FB7B002B4AD13B68002B11D1DE
:10AB2000264B5B6923F41F3323F440737A689268E1
:10AB300011027A68D268120952040A431F4913436A
:10AB40004B6111E01D4B5B6923F0C06323F4FE43AE
:10AB50007A68926811027A6812695208013A5206BC
:10AB60000A43164913434B61144B1B68134A43F0C5
:10AB700080531360FEF796F9B86009E0FEF792F98A
:10AB80000246BB68D31A022B02D90323FB7305E0EC
:10AB90000A4B1B6803F00053002BEFD0FB7B002B0C
:10ABA00006D1064B5A697B685B69044913434B61C4
:10ABB000FB7B18461037BD4680BD00BF0010024029
:10ABC00080B584B000AF78600123FB737B68002BF5
:10ABD00079D07B6893F82130DBB2002B06D17B68FB
:10ABE000002283F820207868FDF72EFF7B68022280
:10ABF00083F821207B681B68DB6803F01003102BAF
:10AC000058D07B681B68CA225A627B681B68532233
:10AC10005A62786800F080F80346FB73FB7B002BD8
:10AC200027D17B681B689B687A68126823F4E0036D
:10AC300023F0400393607B681B6899687B685A68BF
:10AC40007B681B691A437B689B691A437B681B6896
:10AC50000A439A607B681B687A68D2681A617B68CD
:10AC60001B6819697B689B681A047B681B680A4328
:10AC70001A61786800F084F80346FB73FB7B002BB5
:10AC800013D17B681B68DA6C7B681B6822F00302B7
:10AC9000DA647B681B68D96C7B68DA697B685B69FE
:10ACA0001A437B681B680A43DA647B681B68FF22CF
:10ACB0005A6201E00023FB73FB7B002B03D17B680E
:10ACC000012283F82120FB7B18461037BD4680BD4A
:10ACD00080B584B000AF78607B681B680D4ADA608D
:10ACE000FEF7E0F8F86009E0FEF7DCF80246FB68E2
:10ACF000D31AB3F57A7F01D9032307E07B681B6879
:10AD0000DB6803F02003002BEED000231846103739
:10AD1000BD4680BD5FFF030080B584B000AF7860A2
:10AD20000023FB737B681B68DB6803F04003002B88
:10AD300020D17B681B684FF0FF32DA60FEF7B2F873
:10AD4000B8600DE0FEF7AEF80246BB68D31AB3F563
:10AD50007A7F05D90323FB737B68032283F82120C4
:10AD60007B681B68DB6803F04003002B02D1FB7B90
:10AD7000032BE7D1FB7B18461037BD4680BD000092
:10AD800080B584B000AF78600023FB731A4BDB689A
:10AD9000194A23F08003D360174B9B6803F020030C
:10ADA000002B0CD17868FFF793FF0346002B1ED0D1
:10ADB0007B68032283F821200323FB7317E00E4BEB
:10ADC0009B680D4A23F0200393607868FFF780FFAB
:10ADD0000346002B05D07B68032283F82120032340
:10ADE000FB73054B9B68044A43F020039360FB7B95
:10ADF00018461037BD4680BD0028004080B487B09B
:10AE000000AFF860B9607A60FB681B6850337B6103
:10AE1000BB689A007B6913447B617B691A467B6837
:10AE2000136000BF1C37BD465DF8047B704780B5DA
:10AE300082B000AF78607B68002B01D1012340E035
:10AE40007B68DB6F002B06D17B68002283F87820BB
:10AE50007868FDF717FF7B682422DA677B681B6838
:10AE60001A687B681B6822F001021A607B685B6AC3
:10AE7000002B02D0786800F0DBFE786800F020FC40
:10AE80000346012B01D101231BE07B681B685A6834
:10AE90007B681B6822F490425A607B681B689A6842
:10AEA0007B681B6822F02A029A607B681B681A681C
:10AEB0007B681B6842F001021A60786800F05AFF54
:10AEC000034618460837BD4680BD80B58AB002AF3C
:10AED000F860B9603B601346FB80FB68DB6F202B9A
:10AEE00077D1BB68002B02D0FB88002B01D1012356
:10AEF00070E0FB680022C3F88420FB682122DA6737
:10AF0000FDF7D0FF7861FB68FA88A3F85020FB6852
:10AF1000FA88A3F85220FB689B68B3F5805F08D1DC
:10AF2000FB681B69002B04D10023FB61BB68BB617C
:10AF300003E0BB68FB610023BB612FE03B6800932B
:10AF40007B6900228021F86800F0BCFF0346002BDB
:10AF500004D0FB682022DA6703233BE0FB69002B67
:10AF60000BD1BB691A88FB681B68C2F3080292B256
:10AF70001A85BB690233BB6107E0FB691A78FB687D
:10AF80001B681A85FB690133FB61FB68B3F852301B
:10AF90009BB2013B9AB2FB68A3F85220FB68B3F85E
:10AFA00052309BB2002BC9D13B6800937B690022D1
:10AFB0004021F86800F086FF0346002B04D0FB68B0
:10AFC0002022DA67032305E0FB682022DA670023EA
:10AFD00000E0022318462037BD4680BD80B58AB008
:10AFE00000AFF860B9601346FB80FB68D3F880308F
:10AFF000202B37D1BB68002B02D0FB88002B01D15E
:10B00000012330E0FB6800221A66FB681B68184ABF
:10B0100093421FD0FB681B685B6803F40003002B9E
:10B0200018D0FB681B687B617B6953E8003F3B617C
:10B030003B6943F080637B62FB681B681A467B6A4E
:10B040003B62FA61F9693A6A41E80023BB61BB6976
:10B05000002BE6D1FB881A46B968F86800F0A0FF1B
:10B06000034600E0022318462837BD4680BD00BFD6
:10B070000080004080B5BAB000AF78607B681B6884
:10B08000DB69C7F8E4307B681B681B68C7F8E030F1
:10B090007B681B689B68C7F8DC30D7F8E42040F673
:10B0A0000F031340C7F8D830D7F8D830002B15D18C
:10B0B000D7F8E43003F02003002B0FD0D7F8E030AE
:10B0C00003F02003002B09D07B689B6E002B00F05F
:10B0D000CA827B689B6E78689847C4E2D7F8D830FC
:10B0E000002B00F01781D7F8DC3003F00103002BB0
:10B0F00006D1D7F8E020854B1340002B00F00A81E1
:10B10000D7F8E43003F00103002B11D0D7F8E0307A
:10B1100003F48073002B0BD07B681B6801221A623A
:10B120007B68D3F8843043F001027B68C3F8842045
:10B13000D7F8E43003F00203002B11D0D7F8DC304D
:10B1400003F00103002B0BD07B681B6802221A62FC
:10B150007B68D3F8843043F004027B68C3F8842012
:10B16000D7F8E43003F00403002B11D0D7F8DC301B
:10B1700003F00103002B0BD07B681B6804221A62CA
:10B180007B68D3F8843043F002027B68C3F88420E4
:10B19000D7F8E43003F00803002B17D0D7F8E030DD
:10B1A00003F02003002B05D1D7F8DC3003F00103B6
:10B1B000002B0BD07B681B6808221A627B68D3F8CF
:10B1C000843043F008027B68C3F88420D7F8E43069
:10B1D00003F40063002B12D0D7F8E03003F0806353
:10B1E000002B0CD07B681B684FF400621A627B68EE
:10B1F000D3F8843043F020027B68C3F884207B6856
:10B20000D3F88430002B00F03082D7F8E43003F01C
:10B210002003002B0DD0D7F8E03003F02003002BE3
:10B2200007D07B689B6E002B03D07B689B6E786891
:10B2300098477B68D3F88430C7F8D4307B681B68A4
:10B240009B6803F04003402B05D0D7F8D43003F0BF
:10B250002803002B4FD0786800F068FF7B681B68DC
:10B260009B6803F04003402B41D17B681B68083387
:10B27000C7F89C30D7F89C3053E8003FC7F89830A7
:10B28000D7F8983023F04003C7F8D0307B681B68AC
:10B290000833D7F8D020C7F8A820C7F8A430D7F8CB
:10B2A000A410D7F8A82041E80023C7F8A030D7F8A9
:10B2B000A030002BD9D17B685B6F002B13D07B684B
:10B2C0005B6F134A9A637B685B6F1846FDF745FF17
:10B2D0000346002B17D07B685B6F9B6B7A68526FBD
:10B2E000104698470FE0786800F0D4F90BE07868D2
:10B2F00000F0D0F907E0786800F0CCF97B68002214
:10B30000C3F88420B1E100BFAFE100BF2001000419
:10B31000F5C100087B681B6E012B40F06A81D7F8ED
:10B32000E43003F01003002B00F06381D7F8E03025
:10B3300003F01003002B00F05C817B681B68102277
:10B340001A627B681B689B6803F04003402B40F047
:10B35000D4807B685B6F1B685B68A7F8BE30B7F86A
:10B36000BE30002B00F0AD807B68B3F85830B7F8E2
:10B37000BE209A4280F0A5807B68B7F8BE20A3F873
:10B380005A207B685B6F1B681B6803F02003002B4F
:10B3900040F086807B681B68C7F88830D7F8883013
:10B3A00053E8003FC7F88430D7F8843023F4807323
:10B3B000C7F8B8307B681B681A46D7F8B830C7F8AA
:10B3C0009430C7F89020D7F89010D7F8942041E82F
:10B3D0000023C7F88C30D7F88C30002BDAD17B688B
:10B3E0001B6808337B677B6F53E8003F3B673B6F0D
:10B3F00023F00103C7F8B4307B681B680833D7F823
:10B40000B420C7F88020FB67F96FD7F8802041E8A7
:10B410000023BB67BB6F002BE1D17B681B6808333F
:10B420003B663B6E53E8003FFB65FB6D23F040033A
:10B43000C7F8B0307B681B680833D7F8B020FA66CD
:10B44000BB66B96EFA6E41E800237B667B6E002B0B
:10B45000E3D17B682022C3F880207B6800221A6633
:10B460007B681B68FB64FB6C53E8003FBB64BB6CF0
:10B4700023F01003C7F8AC307B681B681A46D7F876
:10B48000AC30BB657A65796DBA6D41E800233B65E8
:10B490003B6D002BE4D17B685B6F1846FDF71FFE08
:10B4A0007B6802225A667B68B3F858207B68B3F841
:10B4B0005A309BB2D31A9BB21946786800F0F4F860
:10B4C000D5E07B68B3F85830B7F8BE209A4240F018
:10B4D000CE807B685B6F1B681B6803F02003202B0A
:10B4E00040F0C5807B6802225A667B68B3F858300A
:10B4F0001946786800F0D8F8B9E07B68B3F85820AE
:10B500007B68B3F85A309BB2D31AA7F8CE307B6869
:10B51000B3F85A309BB2002B00F0AB80B7F8CE30B6
:10B52000002B00F0A6807B681B68BB63BB6B53E8F5
:10B53000003F7B637B6B23F49073C7F8C8307B6854
:10B540001B681A46D7F8C8307B643A64396C7A6C49
:10B5500041E80023FB63FB6B002BE4D17B681B6895
:10B5600008337B627B6A53E8003F3B623B6A23F00F
:10B570000103C7F8C4307B681B680833D7F8C420C0
:10B580003A63FB62F96A3A6B41E80023BB62BB6A2B
:10B59000002BE3D17B682022C3F880207B68002247
:10B5A0001A667B6800229A667B681B683B613B6970
:10B5B00053E8003FFB60FB6823F01003C7F8C0307E
:10B5C0007B681B681A46D7F8C030FB61BA61B9695D
:10B5D000FA6941E800237B617B69002BE4D17B6839
:10B5E00002225A66B7F8CE301946786800F05CF847
:10B5F0003FE0D7F8E43003F48013002B0ED0D7F8E7
:10B60000DC3003F48003002B08D07B681B684FF408
:10B6100080121A62786800F0E9FF2DE0D7F8E43074
:10B6200003F08003002B0ED0D7F8E03003F0800346
:10B63000002B08D07B68DB6E002B1CD07B68DB6E98
:10B640007868984717E0D7F8E43003F04003002B00
:10B6500012D0D7F8E03003F04003002B0CD078680C
:10B6600000F0DEFD08E000BF06E000BF04E000BF20
:10B6700002E000BF00E000BFE837BD4680BD00BF6C
:10B6800080B483B000AF786000BF0C37BD465DF872
:10B69000047B704780B483B000AF786000BF0C3784
:10B6A000BD465DF8047B704780B483B000AF78601E
:10B6B0000B467B8000BF0C37BD465DF8047B7047AE
:10B6C0002DE9B04F8AB000AFF860002387F8223030
:10B6D000FB689A68FB681B691A43FB685B691A433D
:10B6E000FB68DB6913437B62FB681B681A68A44B29
:10B6F0001340FA681268796A0B431360FB681B6891
:10B700005B6823F44051FB68DA68FB681B680A43F6
:10B710005A60FB689B697B62FB681B68994A93428D
:10B7200004D0FB681B6A7A6A13437B62FB681B6860
:10B730009B6823F43061FB681B687A6A0A439A604D
:10B74000FB681B68904A934226D1904BD3F888300F
:10B7500003F00303032B1BD801A252F823F000BF10
:10B7600071B7000881B7000879B7000889B70008E9
:10B77000012387F8233016E1022387F8233012E1F2
:10B78000042387F823300EE1082387F823300AE1E9
:10B79000102387F8233006E1FB681B687C4A93423C
:10B7A00038D17A4BD3F8883003F00C030C2B2DD80A
:10B7B00001A252F823F000BFEDB700080DB8000851
:10B7C0000DB800080DB80008FDB700080DB8000856
:10B7D0000DB800080DB80008F5B700080DB800084E
:10B7E0000DB800080DB8000805B80008002387F858
:10B7F0002330D8E0022387F82330D4E0042387F8ED
:10B800002330D0E0082387F82330CCE0102387F8DA
:10B810002330C8E0FB681B685E4A934225D15B4B2E
:10B82000D3F8883003F03003302B16D0302B18D8E3
:10B83000202B0AD0202B14D8002B02D0102B08D09C
:10B840000FE0002387F82330ADE0022387F8233090
:10B85000A9E0042387F82330A5E0082387F82330E4
:10B86000A1E0102387F823309DE0FB681B684A4A5B
:10B87000934225D1454BD3F8883003F0C003C02B49
:10B8800016D0C02B18D8802B0AD0802B14D8002BB0
:10B8900002D0402B08D00FE0002387F8233082E04D
:10B8A000022387F823307EE0042387F823307AE0F0
:10B8B000082387F8233076E0102387F8233072E0DE
:10B8C000FB681B68354A93422AD1304BD3F8883045
:10B8D00003F44073B3F5407F1AD0B3F5407F1BD813
:10B8E000B3F5007F0CD0B3F5007F15D8002B03D043
:10B8F000B3F5807F08D00FE0002387F8233052E0B3
:10B90000022387F823304EE0042387F823304AE0EF
:10B91000082387F8233046E0102387F8233042E0DD
:10B92000FB681B68174A93423AD1184BD3F888300A
:10B9300003F44063B3F5406F1AD0B3F5406F1BD8E2
:10B94000B3F5006F0CD0B3F5006F15D8002B03D002
:10B95000B3F5806F08D00FE0002387F8233022E092
:10B96000022387F823301EE0042387F823301AE0EF
:10B97000082387F8233016E0102387F8233012E0DD
:10B98000F369FFEF008000400038014000100240E2
:10B990000044004000480040004C0040005000407F
:10B9A000102387F82330FB681B689F4A93427AD1A3
:10B9B00097F82330082B24D801A252F823F000BFB7
:10B9C000E5B9000803BA0008EDB9000803BA000899
:10B9D000F3B9000803BA000803BA000803BA000864
:10B9E000FBB90008FEF7A4FBF86110E08F4BFB6188
:10B9F0000DE0FEF705FBF86109E04FF40043FB6141
:10BA000005E00023FB61012387F8223000BFFB69BA
:10BA1000002B00F0FB80FB685A6813465B00134460
:10BA2000FA699A4205D3FB685B681B03FA699A427C
:10BA300003D9012387F82230E8E0FB6900221C4685
:10BA400015464FF000024FF000032B0243EA146347
:10BA50002202F9684968490800208846814612EBAD
:10BA6000080A43EB090BFB685B6800223B607A60C5
:10BA7000D7E9002350465946FCF712FC02460B4614
:10BA80001346BB61BB69B3F5407F08D3BB69B3F50F
:10BA9000801F04D2FB681B68BA69DA60B6E0012334
:10BAA00087F82230B2E0FB68DB69B3F5004F5ED166
:10BAB00097F82330082B28D801A252F823F000BFB2
:10BAC000E5BA0008EDBA0008F5BA00080BBB00089B
:10BAD000FBBA00080BBB00080BBB00080BBB00083F
:10BAE00003BB0008FEF724FBF86114E0FEF736FB09
:10BAF000F86110E04D4BFB610DE0FEF781FAF86153
:10BB000009E04FF40043FB6105E00023FB610123E2
:10BB100087F8223000BFFB69002B77D0FB695A0001
:10BB2000FB685B685B081A44FB685B68B2FBF3F375
:10BB3000BB61BB690F2B16D9BB69B3F5803F12D22D
:10BB4000BB699BB223F00F03FB82BB695B089BB20E
:10BB500003F007039AB2FB8A1343FB82FB681B685E
:10BB6000FA8ADA6052E0012387F822304EE097F833
:10BB70002330082B27D801A252F823F0A1BB0008DC
:10BB8000A9BB0008B1BB0008C7BB0008B7BB0008D1
:10BB9000C7BB0008C7BB0008C7BB0008BFBB000885
:10BBA000FEF7C6FAF86114E0FEF7D8FAF86110E083
:10BBB0001E4BFB610DE0FEF723FAF86109E04FF43C
:10BBC0000043FB6105E00023FB61012387F822307D
:10BBD00000BFFB69002B19D0FB685B685A08FB6942
:10BBE0001A44FB685B68B2FBF3F3BB61BB690F2BC4
:10BBF00009D9BB69B3F5803F05D2BB699AB2FB682E
:10BC00001B68DA6002E0012387F82230FB6800221B
:10BC10009A66FB680022DA6697F8223018462837C1
:10BC2000BD46BDE8B08F00BF008000400024F40096
:10BC300080B483B000AF78607B685B6A03F0080370
:10BC4000002B0AD07B681B685B6823F400417B688B
:10BC50005A6B7B681B680A435A607B685B6A03F017
:10BC60000103002B0AD07B681B685B6823F400315A
:10BC70007B689A6A7B681B680A435A607B685B6AC8
:10BC800003F00203002B0AD07B681B685B6823F477
:10BC900080317B68DA6A7B681B680A435A607B687C
:10BCA0005B6A03F00403002B0AD07B681B685B68A7
:10BCB00023F480217B681A6B7B681B680A435A60F7
:10BCC0007B685B6A03F01003002B0AD07B681B685B
:10BCD0009B6823F480517B689A6B7B681B680A43DE
:10BCE0009A607B685B6A03F02003002B0AD07B68B4
:10BCF0001B689B6823F400517B68DA6B7B681B68C8
:10BD00000A439A607B685B6A03F04003002B1AD0F9
:10BD10007B681B685B6823F480117B681A6C7B6806
:10BD20001B680A435A607B681B6CB3F5801F0AD1FD
:10BD30007B681B685B6823F4C0017B685A6C7B6876
:10BD40001B680A435A607B685B6A03F08003002B20
:10BD50000AD07B681B685B6823F400217B689A6CBF
:10BD60007B681B680A435A6000BF0C37BD465DF80C
:10BD7000047B704780B598B002AF78607B68002282
:10BD8000C3F88420FDF78EF878657B681B681B6814
:10BD900003F00803082B2ED16FF07E4300937B6DD8
:10BDA00000224FF40011786800F08CF80346002B55
:10BDB00021D07B681B68BB63BB6B53E8003F7B6390
:10BDC0007B6B23F080033B657B681B681A463B6DE9
:10BDD0007B643A64396C7A6C41E80023FB63FB6B4B
:10BDE000002BE6D17B682022DA677B68002283F88B
:10BDF0007820032362E07B681B681B6803F0040360
:10BE0000042B49D16FF07E4300937B6D00224FF4E9
:10BE10008001786800F056F80346002B3CD07B6820
:10BE20001B687B627B6A53E8003F3B623B6A23F4FA
:10BE30009073FB647B681B681A46FB6C3B63FA6279
:10BE4000F96A3A6B41E80023BB62BB6A002BE6D17A
:10BE50007B681B6808333B613B6953E8003FFB602C
:10BE6000FB6823F00103BB647B681B680833BA6C72
:10BE7000FA61BB61B969FA6941E800237B617B69BA
:10BE8000002BE5D17B682022C3F880207B6800224C
:10BE900083F87820032311E07B682022DA677B682F
:10BEA0002022C3F880207B6800221A667B6800226B
:10BEB0005A667B68002283F878200023184658379A
:10BEC000BD4680BD80B584B000AFF860B9603B600E
:10BED0001346FB714FE0BB69B3F1FF3F4BD0FCF75A
:10BEE000E1FF02463B68D31ABA699A4202D3BB69A2
:10BEF000002B01D103234EE0FB681B681B6803F095
:10BF00000403002B37D0BB68802B34D0BB68402B98
:10BF100031D0FB681B68DB6903F00803082B10D1E4
:10BF2000FB681B6808221A62F86800F0FFF8FB68DB
:10BF30000822C3F88420FB68002283F878200123BC
:10BF400029E0FB681B68DB6903F40063B3F5006F4D
:10BF500011D1FB681B684FF400621A62F86800F0A8
:10BF6000E5F8FB682022C3F88420FB68002283F8F0
:10BF7000782003230FE0FB681B68DA69BB68134075
:10BF8000BA689A420CBF01230023DBB21A46FB7940
:10BF90009A42A0D0002318461037BD4680BD00004D
:10BFA00080B497B000AFF860B9601346FB80FB68BF
:10BFB000BA685A65FB68FA88A3F85820FB68FA88C3
:10BFC000A3F85A20FB6800229A66FB689B68B3F5C9
:10BFD000805F0ED1FB681B69002B05D1FB6840F226
:10BFE000FF12A3F85C202DE0FB68FF22A3F85C2081
:10BFF00028E0FB689B68002B0DD1FB681B69002BB8
:10C0000004D1FB68FF22A3F85C201BE0FB687F22C1
:10C01000A3F85C2016E0FB689B68B3F1805F0DD14C
:10C02000FB681B69002B04D1FB687F22A3F85C200E
:10C0300008E0FB683F22A3F85C2003E0FB680022D5
:10C04000A3F85C20FB680022C3F88420FB6822224E
:10C05000C3F88020FB681B680833FB63FB6B53E865
:10C06000003FBB63BB6B43F001037B65FB681B6850
:10C0700008337A6DBA647B64796CBA6C41E800234A
:10C080003B643B6C002BE5D1FB689B68B3F5805F9C
:10C0900007D1FB681B69002B03D1FB68214A9A6614
:10C0A00002E0FB68204A9A66FB681B69002B19D0E6
:10C0B000FB681B68BB62BB6A53E8003F7B627B6A1C
:10C0C00043F49073FB64FB681B681A46FB6C7B634C
:10C0D0003A63396B7A6B41E80023FB62FB6A002B01
:10C0E000E6D118E0FB681B687B617B6953E8003F81
:10C0F0003B613B6943F020033B65FB681B681A46C4
:10C100003B6D3B62FA61F9693A6A41E80023BB6121
:10C11000BB69002BE6D1002318465C37BD465DF8AD
:10C12000047B704731C4000875C2000880B495B024
:10C1300000AF78607B681B687B637B6B53E8003FD4
:10C140003B633B6B23F49073FB647B681B681A466C
:10C15000FB6C3B64FA63F96B3A6C41E80023BB6308
:10C16000BB6B002BE6D17B681B6808333B623B6AE4
:10C1700053E8003FFB61FB6923F00103BB647B686C
:10C180001B680833BA6CFA62BB62B96AFA6A41E8A2
:10C1900000237B627B6A002BE5D17B681B6E012B41
:10C1A00018D17B681B68FB60FB6853E8003FBB60ED
:10C1B000BB6823F010037B647B681B681A467B6CAA
:10C1C000BB617A617969BA6941E800233B613B69E7
:10C1D000002BE6D17B682022C3F880207B680022F8
:10C1E0001A667B6800229A6600BF5437BD465DF828
:10C1F000047B704780B584B000AF78607B689B6A31
:10C20000FB60FB680022A3F85A20FB680022A3F819
:10C210005220F868FFF73EFA00BF1037BD4680BDD8
:10C2200080B588B000AF78607B681B68FB60FB68F6
:10C2300053E8003FBB60BB6823F04003FB617B68B1
:10C240001B681A46FB69BB617A617969BA6941E882
:10C2500000233B613B69002BE6D17B682022DA6733
:10C260007B680022DA667868FFF70AFA00BF203799
:10C27000BD4680BD80B59CB000AF78607B68B3F8E8
:10C280005C30A7F86E307B68D3F88030222B40F00A
:10C29000BE807B681B689B8CA7F86C30B7F86C304D
:10C2A000D9B2B7F86E30DAB27B685B6D0A40D2B2B1
:10C2B0001A707B685B6D5A1C7B685A657B68B3F8A3
:10C2C0005A309BB2013B9AB27B68A3F85A207B6834
:10C2D000B3F85A309BB2002B40F0A3807B681B68F8
:10C2E000FB64FB6C53E8003FBB64BB6C23F49073AE
:10C2F000BB667B681B681A46BB6EBB657A65796D49
:10C30000BA6D41E800233B653B6D002BE6D17B68AD
:10C310001B680833BB63BB6B53E8003F7B637B6BDD
:10C3200023F001037B667B681B6808337A6E7A64AE
:10C330003B64396C7A6C41E80023FB63FB6B002B98
:10C34000E5D17B682022C3F880207B6800229A66B2
:10C350007B6800225A667B681B68344A93421FD070
:10C360007B681B685B6803F40003002B18D07B68B4
:10C370001B687B627B6A53E8003F3B623B6A23F0A9
:10C3800080633B667B681B681A463B6E3B63FA62C0
:10C39000F96A3A6B41E80023BB62BB6A002BE6D125
:10C3A0007B681B6E012B2ED17B6800221A667B688E
:10C3B0001B683B613B6953E8003FFB60FB6823F06F
:10C3C0001003FB657B681B681A46FB6DFB61BA6155
:10C3D000B969FA6941E800237B617B69002BE6D1EA
:10C3E0007B681B68DB6903F01003102B03D17B68AB
:10C3F0001B6810221A627B68B3F8583019467868B7
:10C40000FFF752F90DE07868FCF7DCF909E07B688A
:10C410001B681B8B9AB27B681B6842F0080292B2C1
:10C420001A8300BF7037BD4680BD00BF008000404A
:10C4300080B59CB000AF78607B68B3F85C30A7F83B
:10C440006E307B68D3F88030222B40F0BE807B6852
:10C450001B689B8CA7F86C307B685B6DBB66B7F87C
:10C460006C20B7F86E3013409AB2BB6E1A807B68AE
:10C470005B6D9A1C7B685A657B68B3F85A309BB237
:10C48000013B9AB27B68A3F85A207B68B3F85A3014
:10C490009BB2002B40F0A3807B681B68BB64BB6C25
:10C4A00053E8003F7B647B6C23F490737B667B686E
:10C4B0001B681A467B6E7B653A65396D7A6D41E87B
:10C4C0000023FB64FB6C002BE6D17B681B68083300
:10C4D0007B637B6B53E8003F3B633B6B23F00103C3
:10C4E0003B667B681B6808333A6E3A64FB63F96B02
:10C4F0003A6C41E80023BB63BB6B002BE5D17B6842
:10C500002022C3F880207B6800229A667B68002284
:10C510005A667B681B68344A93421FD07B681B684D
:10C520005B6803F40003002B18D07B681B683B6238
:10C530003B6A53E8003FFB61FB6923F08063FB65C6
:10C540007B681B681A46FB6DFB62BA62B96AFA6ABD
:10C5500041E800237B627B6A002BE6D17B681B6E7F
:10C56000012B2ED17B6800221A667B681B68FB605A
:10C57000FB6853E8003FBB60BB6823F01003BB655A
:10C580007B681B681A46BB6DBB617A617969BA69C1
:10C5900041E800233B613B69002BE6D17B681B68C7
:10C5A000DB6903F01003102B03D17B681B6810229A
:10C5B0001A627B68B3F8583019467868FFF774F848
:10C5C0000DE07868FCF7FEF809E07B681B681B8BC0
:10C5D0009AB27B681B6842F0080292B21A8300BFCD
:10C5E0007037BD4680BD00BF0080004080B483B07E
:10C5F00000AF786000BF0C37BD465DF8047B704724
:10C600000CB430B5184B0C1E1D689DB008DA8B2396
:10C610002B604FF0FF301DB0BDE8304002B07047D6
:10C620004FF40273ADF814304FF000031B9314BFA6
:10C6300004F1FF332346049307934FF6FF730290F0
:10C640000690ADF81630209A21AB02A92846019336
:10C6500000F094F9431CBCBF8B232B60002CDAD074
:10C66000029B00221A70D6E70C0000200244034609
:10C67000934200D1704703F8011BF9E7014B18689A
:10C68000704700BF0C00002070B50D4D0D4C641BB1
:10C69000A4100026A64209D10B4D0C4C00F064FCFE
:10C6A000641BA4100026A64205D170BD55F8043BBA
:10C6B00098470136EEE755F8043B98470136F2E714
:10C6C00094D0000894D0000894D0000898D00008B6
:10C6D0007047704738B50546002941D051F8043CF1
:10C6E0000C1F002BB8BFE41800F0E0F81D4A1368D7
:10C6F00033B9636014602846BDE8384000F0DCB808
:10C70000A34208D9206821188B4201BF19685B68D1
:10C7100009182160EDE71A465B680BB1A342FAD90C
:10C7200011685018A0420BD1206801445018834270
:10C730001160E0D118685B68536008441060DAE764
:10C7400002D90C232B60D6E7206821188B4204BF46
:10C7500019685B68636004BF091821605460CAE708
:10C7600038BD00BFB802002070B50F4E0C463168CE
:10C77000054611B900F0A4FB30602146284600F0C0
:10C780009FFB431C03D14FF0FF34204670BDC41CF7
:10C7900024F00304A042F8D0211A284600F090FBB0
:10C7A0000130F2D1EFE700BFB40200202DE9F843D9
:10C7B000CD1C25F0030508350C2D38BF0C25002DA8
:10C7C000064601DBA94204D90C2333600020BDE8F2
:10C7D000F883DFF8D48000F069F8D8F800301C4600
:10C7E00044BB29463046FFF7BFFF431C044658D1DF
:10C7F000D8F800402746002F43D1002C4BD02368A7
:10C800003946304604EB030900F05AFB814542D11A
:10C8100021686D1A29463046FFF7A6FF01303AD04D
:10C8200023682B442360D8F800305A6862BBC8F8EC
:10C8300000700FE02268521B20D40B2A17D961190F
:10C84000A342256018BF5960636808BFC8F800108C
:10C8500062514B60304600F02FF804F10B00231DAD
:10C8600020F00700C21A1CBF1B1AA350AFE7626872
:10C87000A3420CBFC8F800205A60EBE72346646867
:10C88000AEE73C467F68B6E71A465B68A342FBD139
:10C8900000235360DEE70C233360304600F00CF8D1
:10C8A00094E70560D6E700BFB80200200148FFF713
:10C8B0000FBF00BFB00200200148FFF70ABF00BF52
:10C8C000B00200202DE9F0478E681F46BE420B687B
:10C8D00082460C4690462DD8B1F90C2012F4906F88
:10C8E00026D06569096905EB4505A3EB010905EB50
:10C8F000D5757B1C4B446D109D4238BF1D465305BA
:10C9000027D52946FFF752FF064660B321694A46FC
:10C9100000F0E6FAA38923F4906343F08003A38137
:10C92000266165614E44A5EB09052660A5603E467B
:10C93000BE4200D93E4620683246414600F0A6FA83
:10C94000A3689B1BA3602368334423600020BDE8D9
:10C95000F0872A4600F0D2FA06460028E0D1216985
:10C960005046FFF7B7FE0C23CAF80030A38943F006
:10C970004003A3814FF0FF30E9E700002DE9F04FBD
:10C9800098468B891B069DB007460D46144610D568
:10C990000B6973B94021FFF709FF2860286130B99E
:10C9A0000C233B604FF0FF301DB0BDE8F08F4023FB
:10C9B0006B610023099320238DF82930CDF80C807A
:10C9C0003023DFF89C818DF82A304FF0010923468F
:10C9D0009A4613F8012B0AB1252AF9D1BAEB040BB8
:10C9E0000BD05B46224629463846FFF76BFF0130E5
:10C9F00000F0A780099A5A4409929AF80030002B57
:10CA000000F09F8000234FF0FF32CDE905230AF1AB
:10CA1000010A049307938DF853301A935446052264
:10CA200014F8011B4E48FBF7EBFB049AD8B9D0066B
:10CA300044BF20238DF85330110744BF2B238DF8BA
:10CA400053309AF800302A2B15D0079A544600200C
:10CA50004FF00A0C214611F8013B303B092B4BD912
:10CA6000B0B1079214E0A0EB080309FA03F31343F3
:10CA70000493A246D2E7039B191D1B680391002B68
:10CA8000BBBF5B4242F0020207930793B8BF049218
:10CA900023782E2B0AD163782A2B32D1039B1A1DBF
:10CAA0001B68039243EAE37302340593DFF8C0A0E6
:10CAB000217803225046FBF7A3FB38B1049BA0EB7F
:10CAC0000A004022824013430134049314F8011BEE
:10CAD00024488DF828100622FBF792FB002836D058
:10CAE000214B1BBB039B073323F00703083303933E
:10CAF000099B334409936AE70CFB02320C46012080
:10CB0000A8E700230134059319464FF00A0C20468C
:10CB100010F8012B303A092A03D9002BC6D0059111
:10CB2000C4E70CFB012104460123F0E703AB0093AB
:10CB30002A460E4B04A93846AFF30080421C064635
:10CB4000D6D1AB895B063FF52DAF09982CE703AB37
:10CB500000932A46054B04A9384600F079F8EDE722
:10CB600058D0000862D0000800000000C5C80008C6
:10CB70005ED000082DE9F047164698468A680B6992
:10CB8000DDF820909342B8BF1346336091F84320FC
:10CB900007460C460AB1013333602368990642BF49
:10CBA000336802333360256815F0060506D104F1B9
:10CBB000190AE36832689B1AAB4226DC94F84330CA
:10CBC0002268003B18BF012392062BD404F14302D4
:10CBD00041463846C84701301ED02368226903F019
:10CBE0000603042B02BFE5683368ED1AA3680CBF87
:10CBF00025EAE57500259342C4BF9B1AED1800266F
:10CC00001A34B5421AD1002008E0012352464146A9
:10CC10003846C847013003D14FF0FF30BDE8F087F8
:10CC20000135C6E7E1185A1C302081F84300224440
:10CC300094F8451082F843100233C7E701232246D7
:10CC400041463846C8470130E6D00136D9E70000F2
:10CC50002DE9FF470F7E0C9E782F914680460C46AB
:10CC60009A4601F1430207D8622F0AD8002F00F03C
:10CC7000D180582F00F0B88004F1420684F8427049
:10CC80003AE0A7F16303152BF6D801A151F823F080
:10CC9000E9CC0008FDCC000879CC000879CC00086C
:10CCA00079CC000879CC0008FDCC000879CC0008CC
:10CCB00079CC000879CC000879CC0008FBCD0008BD
:10CCC00027CD0008B5CD000879CC000879CC000844
:10CCD0001DCE000879CC000827CD000879CC0008CB
:10CCE00079CC0008BDCD000833681A1D1B6832607E
:10CCF00004F1420684F8423001239CE03368206846
:10CD0000191D3160060601D51D6803E04506FBD5F7
:10CD1000B3F90050002D03DA2D236D4284F843301F
:10CD200058480A2311E021683368080653F8045B69
:10CD300002D4490648BFADB26F2F5248336014BFCA
:10CD40000A230823002184F843106668A660002E99
:10CD500005DB21682E4321F0040121604BD01646EB
:10CD6000B5FBF3F103FB1157C75D06F8017D2F46B4
:10CD7000BB420D46F4D9082B0BD12368DF0708D539
:10CD8000236961689942DEBF302306F8013C06F151
:10CD9000FF36921B2261CDF800A04B4603AA214624
:10CDA0004046FFF7E7FE01304AD14FF0FF3004B0B4
:10CDB000BDE8F087236843F02003236032487827DA
:10CDC00084F84570236831681F0651F8045B02D46B
:10CDD0005F0648BFADB23160D90744BF43F02003BE
:10CDE00023601DB11023ADE72648E9E7236823F04F
:10CDF00020032360F6E71646BDE7336825686169BE
:10CE0000181D30602E061B6801D5196002E0680607
:10CE1000FBD51980002323611646BCE733681A1D31
:10CE200032601E68626800213046FBF7E9F908B1FC
:10CE3000801B606063682361002384F84330AAE7A5
:10CE40002369324649464046D0470130ADD0236879
:10CE50009B0713D4E068039B9842B8BF1846A6E727
:10CE60000123324649464046D04701309DD0013526
:10CE7000E36803995B1AAB42F2DCEBE7002504F1AF
:10CE80001906F5E769D000087AD00008884210B585
:10CE900001EB020402D98442234607D8431EA14273
:10CEA00008D011F8012B03F8012FF8E702440146DE
:10CEB0008A4200D110BD13F8014D02F8014DF7E789
:10CEC00038B5064D0023044608462B60FBF74CFEA0
:10CED000431C02D12B6803B1236038BDAC02002093
:10CEE0000A44914200F1FF3300D1704710B511F8A8
:10CEF000014B03F8014F9142F9D110BD2DE9F041EA
:10CF0000074614460D4621B9BDE8F0411146FFF72A
:10CF10004DBC2AB9FFF7DEFB25462846BDE8F08167
:10CF200000F01AF88442064602D8B4EB500FF4D849
:10CF300021463846FFF73AFC804608B94546ECE7FB
:10CF4000B4422246294628BF3246FFF7C9FF294688
:10CF50003846FFF7BFFBF1E751F8043C181F002BE0
:10CF6000BCBF0B58C0187047F8B500BFF8BC08BC70
:10CF70009E467047F8B500BFF8BC08BC9E46704797
:10CF80000D0A2053544D3332205541525420424F04
:10CF90004F544C414445520D0A0000002B2B2B00EE
:10CFA0000D0A5B4154204D4F44455D0D0A000000C1
:10CFB000415400004F4B0D0A0000000041542B4229
:10CFC0004F4F5400426F6F746C6F616465722E2E08
:10CFD0002E0D0A005265626F6F74696E67204D43B3
:10CFE00055206E6F772E2E2E0D0A000041542B45D2
:10CFF000584954005B45584954204154204D4F44F2
:10D00000455D0D0A000000004552524F520D0A00C6
:10D0100000000000000000000102030406070809E8
:10D020000000000001020304A0860100400D03007F
:10D03000801A060000350C0040420F0080841E005C
:10D0400000093D0000127A000024F40000366E0151
:10D050000048E801006CDC02232D302B2000686CB6
:10D060004C0065666745464700303132333435360B
:10D070003738394142434445460030313233343544
:0CD0800036373839616263646566000071
:08D08C0044B1FF7F0100000028
:04D09400B58100085A
:04D09800918100087A
:10D09C0000093D00100000000100000010000020FD
:10D0AC000000000074010020DC010020440200207C
:10D0BC000000000000000000000000000000000064
:10D0CC000000000000000000000000000000000054
:10D0DC000000000000000000000000000000000044
:0CD0EC0000000000000000000000000038
:0400000508008D4D15
:00000001FF
